:1000000025006400030A0F093100100932001109AC
:100010003300120934001309350064000E0B000888
:0A0020000008000864080008070B40
:10020E006500500C0200000C06006700000814097F
:10021E00110C3C000C0C3D00050C3E001C02240091
:10022E0000023F00BC021D0224001F022000BD027E
:10023E00FE02150B220B640C2F00000C3000850BF8
:10024E000C020F0E3F008C030F0E29001F028900B7
:10025E000306320B330B3F0B06058C030F0E3F00CC
:10026E00BF02BF030C029F010F0E9F012C00430B18
:10027E0006040F0C6C01430B0D020F0E3F008D0395
:10028E000F0E29001F02890003064E0B4F0B5B0B4E
:10029E0026058D030F0E3F00BF02BF030D029F0107
:1002AE000F0E9F012D005F0B26040F0C6D015F0BCF
:1002BE000E020F0E3F008E030F0E29001F02890043
:1002CE0003066A0B6B0B770B46058E030F0E3F0072
:1002DE00BF02BF030E029F010F0E9F012E007B0B6C
:1002EE0046040F0C6E017B0B010C3E007F001E02BC
:1002FE00AF001F020307F000B000850B10020F01C4
:10030E0043078A0B8B0B270B8C0B060C2B00130C45
:10031E002A00B10C2900E902920BEA02920BEB02C1
:10032E00920B990B0C020F0E0F0F43069F0BA00B97
:10033E00A90B0E020F0E3F00BF020E029F01F00E20
:10034E009F012E000E020F0E3F000D020F0E290010
:10035E001F0289000306B40BB50BBE0B0D020F0E68
:10036E003F00BF020D029F01F00E9F012D000C02F7
:10037E000F0E3F000E020F0E29001F02890003060A
:10038E00C90BCA0BD40B0C020F0E3F00BF020C029E
:10039E009F01F00E9F012C00D40B0C020F0E2900B2
:1003AE00100C89000307DC0BDD0BE10B0C02F00EC9
:1003BE00010D2C000D020F0E2900100C89000307F1
:1003CE00E90BEA0BEE0B0C02F00E010D2C000E02E7
:1003DE000F0E2900100C89000307F60BF70B220BEA
:1003EE000C02F00E010D2C00220B220B220B020A26
:00000001FF
